:100000000C9423180C9464E60C9439E60C940EE6D8
:100010000C94E3E50C94B8E50C948DE50C9462E542
:100020000C9437E50C9482AF0C9482AF0C9482AFA1
:100030000C9454180C9454180C9454180C94541890
:100040000C9454180C94248E0C9454180C9454183A
:100050000C9454180C9454180C9438880C94EDE4B7
:100060000C9454180C9454180C9454180C94541860
:100070000C9454180C9454180C9454180C94541850
:100080000C941B480C9454180C9454180C94541849
:100090000C9473540C9469540C9454180C94541884
:1000A0000C9454180C9454180C94ED470C94541858
:1000B0000C9454180C9454180C9454180C94541810
:1000C0000C9454180C9454180C9454180C94541800
:1000D0000C9454180C9454180C9454180C945418F0
:1000E0000C945418084AD73B3BCE016E84BCBFFD2C
:1000F000C12F3D6C74319ABD56833DDA3D00C77FF8
:1001000011BED9E4BB4C3E916BAAAABE0000008090
:100110003F05A84CCDB2D44EB93836A9020C50B91F
:10012000918688083CA6AAAA2ABE000000803F004B
:100130000D9494054E414E494E495459494E46CD71
:10014000CCCC3D0AD7233C17B7D13877CC2B32958E
:1001500095E6241FB14F0A000020410000C842006C
:10016000401C4620BCBE4CCA1B0E5AAEC59D740036
:10017000407A10F35A00A0724E18090010A5D4E876
:100180000000E87648170000E40B54020000CA9A09
:100190003B000000E1F5050000809698000000405B
:1001A000420F000000A086010000001027000000A0
:1001B00000E803000000006400000000000A0000E6
:1001C0000000000100000000002C76D888DC674F9A
:1001D0000823DFC1DFAE59E1B1B796E5E3E453C6CA
:1001E0003AE651997696E8E6C28426EB898C9B62C2
:1001F000ED407C6FFCEFBC9C9F40F2BAA56FA5F46C
:1002000090055A2AF75C936B6CF9676DC11BFCE093
:10021000E40D47FEF520E6B500D0ED902E030094E6
:100220003577050080841E080000204E0A0000007B
:10023000C80C333333330F986E12831141EF8D2185
:1002400014893BE65516CFFEE6DB18D1844B381BEC
:10025000F77C1D901DA4BBE424203284725E2281B1
:1002600000C9F124ECA1E53D27434F4D4D554E49C2
:10027000434154494F4E0044525952554E00455245
:10028000524F525300494E464F004543484F004598
:1002900072726F722077726974696E6720746F2052
:1002A000454550524F4D210A0053544F505045443C
:1002B0002E20005072696E7465722073746F7070B6
:1002C00065642064756520746F206572726F727347
:1002D0002E2046697820746865206572726F7220DE
:1002E000616E6420757365204D39393920746F2033
:1002F000726573746172742E202854656D70657216
:1003000061747572652069732072657365742E203F
:100310005365742069742061667465722072657318
:1003200074617274696E67290A004E6F20436865B4
:10033000636B73756D2077697468206C696E6520D6
:100340006E756D6265722C204C617374204C696E01
:10035000653A20004E6F20436865636B73756D20AE
:1003600077697468206C696E65206E756D62657260
:100370002C204C617374204C696E653A20006368D0
:1003800065636B73756D206D69736D617463682C43
:10039000204C617374204C696E653A20004C696E84
:1003A00065204E756D626572206973206E6F7420D2
:1003B0004C617374204C696E65204E756D62657278
:1003C0002B312C204C617374204C696E653A2000EF
:1003D0004D3131300053657269616C207374617402
:1003E0007573206D69736D617463680A00534420EE
:1003F00072656164206572726F720A00486F74657D
:100400006E642049646C652054696D656F75740075
:10041000486F74656E642049646C652054696D652D
:100420006F75740A002121204B494C4C2063617583
:10043000736564206279204B494C4C20627574745A
:100440006F6E2F70696E0A002121204B494C4C20A1
:1004500063617573656420627920746F6F206D75B8
:10046000636820696E6163746976652074696D657F
:10047000202D2063757272656E7420636F6D6D61DF
:100480006E643A2000627573793A20706175736505
:100490006420666F7220696E7075740A00627573ED
:1004A000793A2070617573656420666F7220757388
:1004B00065720A00627573793A2070726F636573B2
:1004C00073696E670A004D656469612052656D6FDE
:1004D000766564004D6564696120496E7365727468
:1004E000656400506C6561736520526573657400C6
:1004F0005052494E5445522048414C5445440025E1
:10050000533A202553004B494C4C45442E20005073
:1005100072696E7465722068616C7465642E206BFC
:10052000696C6C28292063616C6C6564210A005336
:10053000544F505045442E20005072696E746572BD
:100540002073746F707065642064756520746F200B
:100550006572726F72732E20466978207468652008
:100560006572726F7220616E6420757365204D39FB
:10057000393920746F20726573746172742E20286B
:1005800054656D706572617475726520697320724F
:10059000657365742E2053657420697420616674D8
:1005A00065722072657374617274696E67290A00DE
:1005B0006563686F3A004572726F723A0042696C07
:1005C000696E656172204C6576656C696E6720475F
:1005D0007269643A0A0021212053544F502063610C
:1005E0006C6C65642062656361757365206F66205D
:1005F000424C546F756368206572726F72202D20B3
:10060000726573746172742077697468204D39392A
:10061000390A0021212053544F502063616C6C65CE
:10062000642062656361757365206F6620424C5477
:100630006F756368206572726F72202D207265730A
:10064000746172742077697468204D3939390A00F1
:100650005072696E74696E67204F626A65637400D8
:10066000255320256900426564204C6576656C69D8
:100670006E6720004661696C656420746F20656E4A
:1006800061626C6520426564204C6576656C696EBC
:10069000670A00496E76616C6964206D6573682E27
:1006A0000A004265642048656174696E672E2E2ECB
:1006B000005761697420666F722062656420686506
:1006C0006174696E672E2E2E0A0050726F62696E19
:1006D0006720506F696E740025532025692F2569A6
:1006E000002E0A002F0050726F62696E67206D65E0
:1006F000736820706F696E7420002028445259522C
:10070000554E2900473239204175746F2042656487
:10071000204C6576656C696E67003F20284C2C5232
:100720002C462C4229206F7574206F6620626F75ED
:100730006E64732E0A003F2856296572626F7365D6
:10074000206C6576656C20696D706C61757369628B
:100750006C652028302D34292E0A00426164205A0D
:100760002076616C75650A004E6F2062696C696E57
:1007700065617220677269640A00204300204200AC
:1007800020410020530020480020520020204D36F8
:100790003635204C0044656C746120284C3C6469FB
:1007A00061676F6E616C2D726F643E20523C7261A6
:1007B000646975733E20483C6865696768743E20CB
:1007C000533C7365672D7065722D7365633E2058C9
:1007D000595A3C746F7765722D616E676C652D7424
:1007E00072696D3E204142433C726F642D747269A0
:1007F0006D3E290020204D363636205800456E6467
:1008000073746F702061646A7573746D656E7400C3
:1008100020440020204D32303020540020204D3222
:100820003030205300202844697361626C6564296C
:100830003A0046696C616D656E7420736574746905
:100840006E67730020204D3230312058004D6178A2
:1008500020416363656C65726174696F6E202875F1
:100860006E6974732F7332290020204D323033208B
:1008700058004D6178206665656472617465732007
:1008800028756E6974732F73290020520020204D43
:10089000323034205000416363656C657261746965
:1008A0006F6E2028756E6974732F7332292028505B
:1008B0003C7072696E742D616363656C3E20523CBE
:1008C000726574726163742D616363656C3E20545C
:1008D0003C74726176656C2D616363656C3E2900C2
:1008E0005741524E494E4721204C6F77205A204A9B
:1008F00065726B206D6179206C65616420746F2076
:10090000756E77616E746564207061757365732EA2
:100910000A0020580020540020530020204D32307F
:1009200035204200416476616E6365642028423C54
:100930006D696E5F7365676D656E745F74696D6513
:100940005F75733E20533C6D696E5F6665656472CA
:100950006174653E20543C6D696E5F7472617665AA
:100960006C5F66656564726174653E20583C6D61BC
:10097000785F785F6A65726B3E20593C6D61785F85
:10098000795F6A65726B3E205A3C6D61785F7A5F71
:100990006A65726B3E20453C6D61785F655F6A6594
:1009A000726B3E290020204D32313700546F6F6C3E
:1009B0002D6368616E67696E6700204400204900FE
:1009C00020204D333031205000486F74656E642014
:1009D000504944003B200020496E76616C696420D8
:1009E0006578747275646572200047322F47332032
:1009F00062616420706172616D65746572730A0072
:100A0000536C6565702E2E2E000000000000000063
:100A10000000007A43486F6D6520257325732573A8
:100A200020466972737400205A3A200020593A20F7
:100A30000042656420583A20004D65736820706F4D
:100A4000696E74206F7574206F662072616E6765C1
:100A50000A00436C69636B20746F20526573756D77
:100A6000652E2E2E004E6F204D6F76652E00456E42
:100A7000642066696C65206C6973740A004265675E
:100A8000696E2066696C65206C6973740A004E6F2C
:100A9000206D656469610A00286E6F2066696C6567
:100AA000290043757272656E742066696C653A2020
:100AB000005344207072696E74696E6720627974A5
:100AC0006520004E6F74205344207072696E746903
:100AD0006E670A002E0A0044656C6574696F6E20AB
:100AE0006661696C65642C2046696C653A20004635
:100AF000696C652064656C657465643A0050726960
:100B00006E742074696D653A20000A5374617473C1
:100B10003A2046696C616D656E7420757365643A40
:100B200020002C204C6F6E67657374206A6F623AE8
:100B30002000546F74616C2074696D653A20005315
:100B4000746174733A20002C204661696C65643AC4
:100B500020002C2046696E69736865643A20005055
:100B600072696E74733A200053746174733A200092
:100B70006F6B006F6666008A0285027E02770269EB
:100B80000244454255473A004D3131322053687591
:100B900074646F776E004D31313320530050533AF7
:100BA000300A0050533A310A0053756E6465726C16
:100BB000616E64204B323830204F46462E002F2F76
:100BC000004D31343520533C696E6465783E206FAA
:100BD0007574206F662072616E67652028302D3134
:100BE000290A0046523A0020466C6F773A20003AB4
:100BF000200020536572766F2000206F7574206F7F
:100C0000662072616E67650A00536572766F200018
:100C1000496E76616C69642065787472756465727A
:100C20000A0064697300656E0043290A0061626C02
:100C3000656420286D696E2074656D702000436FB7
:100C40006C642065787472756465732061726520C8
:100C5000004D34323120696E636F727265637420A7
:100C6000706172616D657465722075736167650A84
:100C7000004D65736820706F696E74206F75742005
:100C80006F662072616E67650A00454550524F4D90
:100C9000204F4B0A003F4D363636206F666673652F
:100CA0007473206D757374206265203C3D20300A9A
:100CB000004D383400446F6E65207072696E74693F
:100CC0006E672066696C650A004D3737004D333119
:100CD00000496E76616C696420657874727564652C
:100CE000720A004163746976652045787472756490
:100CF00065723A20004361703A004D4541545041BD
:100D0000434B00434F4F4C45525F54454D50455265
:100D10004154555245004348414D4245525F544568
:100D20004D50455241545552450042414259535449
:100D3000455050494E470041524353004D4F54498E
:100D40004F4E5F4D4F44455300544845524D414C22
:100D50005F50524F54454354494F4E004C4F4E47FD
:100D60005F46494C454E414D45004155544F524513
:100D7000504F52545F53445F5354415455530053A2
:100D8000445F575249544500524550454154005321
:100D900044434152440050524F4D50545F535550BC
:100DA000504F525400484F53545F414354494F4EA3
:100DB0005F434F4D4D414E445300454D45524745CD
:100DC0004E43595F50415253455200434153455F92
:100DD0004C494748545F4252494748544E45535343
:100DE00000544F47474C455F4C49474854530053C4
:100DF0004F4654574152455F504F57455200425558
:100E0000494C445F50455243454E54004C4556456D
:100E10004C494E475F44415441005A5F50524F4243
:100E2000450052554E4F5554004155544F4C455670
:100E3000454C005052494E545F4A4F420050524F69
:100E40004752455353004155544F5245504F525409
:100E50005F54454D50004155544F5245504F5254E8
:100E60005F504F5300564F4C554D45545249430027
:100E7000454550524F4D0042494E4152595F4649F7
:100E80004C455F5452414E534645520053455249DA
:100E9000414C5F584F4E5F584F4646004649524DB1
:100EA000574152455F4E414D453A4D61726C696EF6
:100EB00020322E302E392E3220284D6179203131CA
:100EC00020323032322031353A35303A353329202C
:100ED000534F555243455F434F44455F55524C3A3B
:100EE0006769746875622E636F6D2F4D61726C69EE
:100EF0006E4669726D776172652F4D61726C696EB5
:100F00002050524F544F434F4C5F56455253494F18
:100F10004E3A312E30204D414348494E455F545999
:100F200050453A53756E6465726C616E64204B3245
:100F300038302045585452554445525F434F554E22
:100F4000543A3220555549443A63656465326132FA
:100F5000662D343161322D343734382D39623132D7
:100F60002D6335356336326633363766660A0029B7
:100F70000A0020746F20003F5A206F7574206F663E
:100F80002072616E6765202800290A0020746F2096
:100F9000003F59206F7574206F662072616E67651F
:100FA00020282D00290A0020746F20003F58206F50
:100FB0007574206F662072616E676520282D002091
:100FC0003B0020204D3835312058005A2D50726F8B
:100FD0006265204F66667365740025697300256934
:100FE0006D20256973002569682025696D202569B4
:100FF0007300256964202569682025696D202569AD
:101000007300256979202569642025696820256990
:101010006D2025697300436F6F6C696E672E2E2EED
:101020000048656174696E672E2E2E0045312025BB
:10103000530042656420436F6F6C696E672E2E2EDD
:10104000004265642048656174696E672E2E2E002B
:1010500023646566696E652044454641554C545F7E
:10106000004B6420004B6920004B70200050494425
:10107000204175746F74756E652066696E6973685A
:101080006564212050757420746865206C617374E8
:10109000204B702C204B6920616E64204B642063D0
:1010A0006F6E7374616E74732066726F6D2062650B
:1010B0006C6F7720696E746F20436F6E6669677519
:1010C000726174696F6E2E680A0050494420417540
:1010D000746F74756E65206661696C656421207437
:1010E000696D656F75740A00504944204175746FCD
:1010F00074756E65206661696C6564212054656D48
:10110000706572617475726520746F6F20686967AD
:10111000680A00504944204379636C657300255385
:101120002025692F256900204B643A2000204B6957
:101130003A2000204B703A200020436C61737369A1
:101140006320504944200A002054753A2000204B67
:10115000753A2000206D61783A2000206D696E3A62
:10116000200020643A200020626961733A20002543
:101170005300504944204175746F74756E65207337
:10118000746172740A00504944204175746F74751B
:101190006E65206661696C6564212054656D7065BB
:1011A00072617475726520746F6F20686967680A70
:1011B00000504944204175746F74756E65206661F6
:1011C000696C6564212042616420686561746572A0
:1011D0002069640A00504944204175746F74756E2B
:1011E0006500A10000006900A20000006300B000DB
:1011F00000000900C10000004100C20000004100E1
:10120000C30000004100C40000004100C500000010
:101210004100C60000004145C70000004300C8006F
:1012200000004500C90000004500CD000000490055
:10123000D10000004E00D50000004F00D600000095
:101240004F00D70000007800DC0000005500DD00F2
:1012500000005900E00000006100E10000006100B2
:10126000E20000006100E30000006100E400000013
:101270006100E50000006100E60000006165E70034
:1012800000006300E80000006500E9000000650060
:10129000EA0000006500EB0000006500EC000000C3
:1012A0006900ED0000006900EE0000006900EF0039
:1012B00000006900F10000006E00F20000006F0005
:1012C000F30000006F00F40000006F00F500000064
:1012D0006F00F60000006F00F80000006F00F900DA
:1012E00000007500FA0000007500FB0000007500AA
:1012F000FC0000007500FD0000007900FF00000008
:1013000079000401000041000501000061000601B0
:10131000000043000701000063000C0100004300CF
:101320000D01000063000E01000044000F010000E9
:1013300064001101000064001901000065001A0139
:10134000000045001B01000065001F010000670050
:101350003001000049003101000069004101000036
:101360004C00420100006C00430100004E004401AB
:1013700000006E00480100006E005801000052009D
:101380005901000072005A01000053005B01000087
:1013900073005F01000073006001000053006101F1
:1013A000000073006501000074006F01000075000B
:1013B0007C0100007A007D0100005A007E010000DF
:1013C0007A00920100006600E3020000780022200B
:1013D00000002E001E210000507822210000544DF4
:1013E000902100003C2D922100002D3EB0210000F4
:1013F0000300BB21000004003C2200007E004822C4
:1014000000007E3D60220000213D612200003D0081
:10141000642200003C3D652200003E3DF1230000B7
:101420000700A03000003D0021F301000200C2F4DB
:1014300001000500A2000000EC00B0000000DF0089
:10144000E4000000E100F6000000EF00F7000000FB
:10145000FD00FC000000F500E3020000EB00870344
:101460000000A5008F030000F40098030000F200C4
:101470009E030000E300A3030000F600A9030000A0
:10148000F400AC030000E000AD030000E300B10392
:101490000000E000B2030000E200B5030000E3003A
:1014A000B8030000F200BC030000E400BE0300002B
:1014B000E300C0030000F700C1030000E600C3031F
:1014C0000000E500902100007F00922100007E00D6
:1014D0001A220000E8001E220000F3008825000008
:1014E000FF0002300000A1000C300000A2000D300F
:1014F0000000A3009B300000DE009C300000DF00F5
:10150000A03000003D00A1300000A700A230000084
:10151000B100A3300000A800A4300000B200A53044
:101520000000A900A6300000B300A7300000AA0008
:10153000A8300000B400A9300000AB00AA300000C1
:10154000B500AB300000B600AC300000B6DEAD3008
:101550000000B700AE300000B7DEAF300000B800CA
:10156000B0300000B8DEB1300000B900B230000089
:10157000B9DEB3300000BA00B4300000BADEB530D6
:101580000000BB00B6300000BBDEB7300000BC007E
:10159000B8300000BCDEB9300000BD00BA30000039
:1015A000BDDEBB300000BE00BC300000BEDEBD3082
:1015B0000000BF00BE300000BFDEBF300000C00032
:1015C000C0300000C0DEC1300000C100C2300000E9
:1015D000C1DEC3300000AF00C4300000C200C5301F
:1015E0000000C2DEC6300000C300C7300000C3DE0A
:1015F000C8300000C400C9300000C4DECA3000009A
:10160000C500CB300000C600CC300000C700CD3094
:101610000000C800CE300000C900CF300000CA0072
:10162000D0300000CADED1300000CADFD230000066
:10163000CB00D3300000CBDED4300000CBDFD53080
:101640000000CC00D6300000CCDED7300000CCDF6C
:10165000D8300000CD00D9300000CDDEDA300000F7
:10166000CDDFDB300000CE00DC300000CEDEDD3030
:101670000000CEDFDE300000CF00DF300000D00001
:10168000E0300000D100E1300000D200E230000084
:10169000D300E3300000AC00E4300000D400E530BB
:1016A0000000AD00E6300000D500E7300000AE00DD
:1016B000E8300000D600E9300000D700EA30000032
:1016C000D800EB300000D900EC300000DA00ED303B
:1016D0000000DB00EF300000DC00F2300000A6006C
:1016E000F3300000DD00F4300000B3DEF73000001E
:1016F000DCDEFA300000A6DEFB300000A500FC3086
:101700000000B000FD300000A400074E0000FB0008
:1017100086510000FC0043530000FA0064FF000003
:10172000A40065FF0000A50066FF0000A60067FF9B
:101730000000A70068FF0000A80069FF0000A900E2
:101740006AFF0000AA006BFF0000AB006CFF000006
:10175000AC006DFF0000AD006EFF0000AE006FFF3B
:101760000000AF0070FF0000B00071FF0000B1008A
:1017700072FF0000B20073FF0000B30074FF0000AE
:10178000B40075FF0000B50076FF0000B60077FFDB
:101790000000B70078FF0000B80079FF0000B90032
:1017A0007AFF0000BA007BFF0000BB007CFF000056
:1017B000BC007DFF0000BD007EFF0000BE007FFF7B
:1017C0000000BF0080FF0000C00081FF0000C100DA
:1017D00082FF0000C20083FF0000C30084FF0000FE
:1017E000C40085FF0000C50086FF0000C60087FF1B
:1017F0000000C70088FF0000C80089FF0000C90082
:101800008AFF0000CA008BFF0000CB008CFF0000A5
:10181000CC008DFF0000CD008EFF0000CE008FFFBA
:101820000000CF0090FF0000D00091FF0000D10029
:1018300092FF0000D20093FF0000D30094FF00004D
:10184000D40095FF0000D50096FF0000D60097FF5A
:101850000000D70098FF0000D80099FF0000D900D1
:101860009AFF0000DA009BFF0000DB009CFF0000F5
:10187000DC009DFF0000DD009EFF0000DE009FFFFA
:101880000000DF00E5FF00005C0000000000010236
:1018900004040000001C1C0C0404040201000000ED
:1018A000000004081000000000002D2D2D2D2D2D0E
:1018B000007C4D61726C696E7C002D2D2D2D2D2DBF
:1018C00000001C1F11111F00000006191803130C43
:1018D00000040E1F041C000000000E1315110E0062
:1018E000001C10181705060500040A0A0A0A11113F
:1018F0000E0C12120C00000000001F1511151F0025
:101900000042656400456E636C6F73757265002DEF
:101910002D2D0053440020202020202020002020B6
:101920002020005072696E742041626F7274656489
:10193000004D32350050617573696E672E2E2E0092
:101940004D323400454550524F4D205665727369F3
:101950006F6E204572726F7200454550524F4D2098
:10196000496E646578204572726F72004545505229
:101970004F4D20435243204572726F72003F004921
:10198000676E6F726500526573657400496E6974A5
:1019900069616C697A6520454550524F4D004D6F25
:1019A00076696E672E2E2E0046696C2E2044696182
:1019B0002E202A0046696C2E204469612E004520A5
:1019C000696E206D6D5E33002002204661637400F5
:1019D0002002204D6178002002204D696E004F6684
:1019E00066004F6E004175746F74656D70004D69CF
:1019F0006E2054726176656C2056656C004D696E80
:101A00002056656C6F63697479004D6178204520BC
:101A100056656C004D617820432056656C004D6121
:101A20007820422056656C004D6178204120566533
:101A30006C004D6178204520416363656C004D6109
:101A400078204320416363656C004D61782042201B
:101A5000416363656C004D6178204120416363659B
:101A60006C0054726176656C20416363656C005252
:101A700065747261637420416363656C00416363E4
:101A8000656C004D61782045204A65726B004D61A0
:101A9000782043204A65726B004D61782042204ACD
:101AA00065726B004D61782041204A65726B005071
:101AB000726F6265205A204F6666736574005072BB
:101AC0006F62652059204F66667365740050726FAF
:101AD00062652058204F66667365740045207374F4
:101AE0006570732F6D6D00432053746570732F6D97
:101AF0006D00422053746570732F6D6D004120534B
:101B0000746570732F6D6D00416476616E636564FA
:101B10002053657474696E6773003F0043616E63A0
:101B2000656C00496E697400496E697469616C691D
:101B30007A6520454550524F4D0046696C616D6590
:101B40006E740054656D70657261747572650053D2
:101B5000746570732F6D6D0050726F6265204F66F3
:101B60006673657473004A65726B00416363656CEC
:101B700065726174696F6E0056656C6F6369747924
:101B800000436F6E66696775726174696F6E003FBE
:101B90000043616E63656C204F626A656374004E3A
:101BA0004F005945530043616E63656C204F626A74
:101BB000656374203D004D61696E004142530050E1
:101BC0004C41005A2052616973650053746F77006D
:101BD0004465706C6F790053572D4D6F64650053E9
:101BE000656C662D546573740052657365740042AC
:101BF0006564004E6F7A7A6C650046616E205370A2
:101C000065656400436F6E66696775726174696FBC
:101C10006E00526573746F72652044656661756C01
:101C20007473004C6F61642053657474696E6773DC
:101C30000053746F72652053657474696E67730026
:101C400050726568656174202420436F6E6600548D
:101C50006F6F6C204368616E676500424C546F750E
:101C600063680050726F6265205A204F6666736524
:101C70007400416476616E636564205365747469B1
:101C80006E6773004D61696E003F004261636B00D7
:101C900053746F70004E6F204D656469610050721F
:101CA000696E742066726F6D204D656469610043D2
:101CB00068616E6765204D65646961004D32310071
:101CC0004D38300053776974636820506F776572C0
:101CD000204F6666004D383100436F6E6669677548
:101CE000726174696F6E0054656D706572617475B0
:101CF0007265004D6F74696F6E00526573756D6526
:101D0000205072696E740053776974636820506F55
:101D1000776572204F6E0043616E63656C204F6281
:101D20006A6563740054756E650053746F7020505B
:101D300072696E74005061757365205072696E74BB
:101D400000496E666F2053637265656E003F0053F5
:101D500074617274205072696E740043616E6365C1
:101D60006C005072696E740043616E6E6F74206512
:101D70006E746572207375626469723A2000052082
:101D80002E2E004D61696E002100486F74656E64EF
:101D900020746F6F20636F6C64004261636B00504E
:101DA000726F63656564004D6F766520452A004655
:101DB000726565205859004D6F74696F6E004469F3
:101DC0007361626C65205374657070657273004D49
:101DD0003834004F6666004F6E00426564204C65E3
:101DE00076656C696E67004C6576656C204265644B
:101DF000004732394E004175746F20486F6D6500A1
:101E0000473238004D61696E0050726568656174D3
:101E1000202420456E64005072656865617420243A
:101E2000204265640054656D7065726174757265F9
:101E300000BF1BBB1B436F6F6C646F776E005072EB
:101E4000656865617420240046616E205370656585
:101E500064207E00426564004E6F7A7A6C65004DA6
:101E600061696E00466C6F77207E00466C6F77006C
:101E700046616E205370656564207E004265640093
:101E80004E6F7A7A6C65005370656564004D6169C8
:101E90006E00486F6D696E67204661696C6564000D
:101EA0006F70656E00545249474745524544003AA9
:101EB00020007A5F6D6178007A5F6D696E00795FEE
:101EC0006D617800785F6D6178005265706F727433
:101ED000696E6720656E6473746F702073746174CB
:101EE00075730A0020746F6F206C6F6E67206578C1
:101EF00074727573696F6E2070726576656E746545
:101F0000640A0020636F6C6420657874727573696D
:101F10006F6E2070726576656E7465640A00576135
:101F2000726E696E673A20486F6D696E6720427500
:101F30006D702044697669736F72203C20310A000D
:101F40000A0A0A00008C4300008C4300007A430018
:101F500000A0400000A0400000A04020746F6F204F
:101F60006C6F6E6720657874727573696F6E207020
:101F7000726576656E7465640A0020636F6C642018
:101F8000657874727573696F6E2070726576656EB0
:101F90007465640A0053657474696E6773205374C2
:101FA0006F72656400290A002062797465733B20B2
:101FB000637263200053657474696E677320537491
:101FC0006F72656420280048617264636F646564A1
:101FD0002044656661756C742053657474696E671E
:101FE00073204C6F616465640A0020286D6D2900C0
:101FF0004F4646004F4E00203B204C6576656C698D
:102000006E67200020204D3432302053004175741B
:102010006F20426564204C6576656C696E670020B0
:10202000460020420020480020204D313435205306
:10203000004D6174657269616C20686561747570CA
:1020400020706172616D657465727300204A0020B2
:1020500020473239205720490020204D3134392083
:1020600043203B20556E69747320696E2043656C74
:10207000736975730A0054656D7065726174757269
:102080006520556E697473002020473231203B0073
:102090004C696E65617220556E69747300454550D8
:1020A000524F4D206461746173697A652065727264
:1020B0006F722E0A00290A002062797465733B2032
:1020C00063726320002073746F726564207365749B
:1020D00074696E67732072657472696576656420D1
:1020E0002800202863616C63756C61746564292124
:1020F0000A0020213D2000454550524F4D204352BB
:1021000043206D69736D61746368202D202873749A
:102110006F7265642920002053697A653A2000496E
:102120006E6465783A20000000FA430000FA43002C
:1021300000FA430000C84102ABAA4302ABAA430223
:10214000ABAA4300005144282300002823000028A4
:1021500023000010270000204D61726C696E3D560F
:102160003835290A00454550524F4D207665727327
:10217000696F6E206D69736D6174636820284545D1
:1021800050524F4D3D0024F4D43050C38E20C2A293
:102190004017828B7011127A910D816CD90AA86157
:1021A000E108C7586607615143061E4B5D05C145EE
:1021B000A7041A411104093D9803713931034036CF
:1021C000DB0265339102D4305402802E1D02632C51
:1021D000EE01752AC501B028A001102781018F25C5
:1021E00064012B244B01E0223401AC211F018D201E
:1021F0000D01801FFC00841EED00971DDF00B81C40
:10220000D200E61BC600201BBC00641AB200B21943
:10221000A8000A19A0006A189900D1179100401768
:102220008B00B516840031167E00B31579003A157F
:102230007300C7146F0058146A00EE136600881309
:10224000630025135E00C7125B006C125700151265
:102250005400C111510070114F0021114B00D610D4
:1022600049008D1047004610440002104200C00F84
:102270004000800F3E00420F3C00060F3B00CB0E9B
:102280003800930E37005C0E3500270E3400F30D36
:102290003200C10D3100900D3000600D2E00320D66
:1022A0002D00050D2C00D90C2B00AE0C2900850C3F
:1022B00029005C0C2700350C27000E0C2600E80BCB
:1022C0002400C40B2400A00B23007D0B23005A0B19
:1022D0002100390B2100180B2000F80A1F00D90A31
:1022E0001E00BB0A1E009D0A1D00800A1D00630A15
:1022F0001C00470A1B002C0A1B00110A1A00F709D0
:102300001A00DD091900C4091900AB091900920966
:1023100017007B091800630917004C0916003609DD
:102320001600200916000A091500F5081500E00836
:102330001400CC081400B8081400A4081400900875
:1023400013007D0812006B0813005808120046089D
:1023500012003408110023081100120811000108AE
:102360001100F0071000E0071000D0071000C007B0
:102370001000B0070F00A107100091070E0083079F
:102380000F0074070F0065070E0057070E0049077E
:102390000E003B070D002E070E0020070D0013074F
:1023A0000D0006070D00F9060C00ED060D00E00615
:1023B0000C00D4060C00C8060C00BC060C00B006CD
:1023C0000C00A4060B0099060C008D060B0082067B
:1023D0000B0077060B006C060B0061060A0057061F
:1023E0000B004C060A0042060A0038060A002E06B8
:1023F0000A0024060A001A060A0010060900070649
:102400000A00FD050900F4050900EB050900E205D5
:102410000900D9050900D0050900C7050900BE0556
:102420000900B5050800AD050800A50509009C05D3
:102430000800940508008C050800840508007C0548
:102440000800740508006C050700650508005D05B7
:102450000700560508004E05070047050700400520
:10246000080038050700310507002A050700230585
:1024700007001C050600160507000F0507000805E4
:10248000060002050700FB040600F5040700EE0441
:102490000600E8040600E2040700DB040600D50499
:1024A0000600CF040600C9040600C3040600BD04EC
:1024B0000600B7040600B1040500AC040600A6043B
:1024C0000600A00405009B04060095040500900486
:1024D00006008A04050085040500800406007A04CD
:1024E000050075040500700405006B040500660412
:1024F0000500610405005C04050057040500520452
:1025000005004D04050048040500430405003E0491
:1025100004003A04050035040500300404002C04CE
:10252000050027040400230405001E0404001A0407
:10253000040016040500110404000D04040009043D
:1025400005000404040000040400FC030400F80374
:102550000400F4030400F0030400EC030400E803A7
:102560000400E4030400E0030400DC030400D803D7
:102570000400D4030400D0030400CC030400C80307
:102580000300C503030024F404D9201BC40C5C0E13
:102590009804C4095F0265077101F405F900FB04A2
:1025A000B30048048700C1036900580355000303C2
:1025B0004500BE023A008402310053022A0029027B
:1025C000250004022000E4011C00C8011900AF012D
:1025D00017009801140084011300710110006101BB
:1025E000100051010E0043010D0036010B002B01BC
:1025F0000B0020010B00150109000C01090003016B
:102600000800FB000800F3000800EB000700E400EE
:102610000600DE000600D8000600D2000600CC004E
:102620000500C7000500C2000500BD000400B90098
:102630000400B5000400B1000400AD000400A900CE
:102640000400A5000300A20003009F0004009B00FB
:10265000030098000300950002009300030090001F
:1026600003008D0002008B0003008800020086003A
:10267000020084000300810002007F0002007D0050
:1026800002007B0002007900020077000100760062
:1026900002007400020072000100710002006F006D
:1026A00002006D0001006C0002006A000100690078
:1026B000020067000100660001006500010064007F
:1026C00002006200010061000100600001005F0083
:1026D00002005D0001005C0001005B0001005A0087
:1026E0000100590001005800010057000100560088
:1026F0000100550001005400010053000000530088
:1027000001005200010051000100500001004F0083
:1027100001004E0000004E0001004D0001004C0081
:1027200001004B0000004B0001004A00010049007D
:102730000100480000004800010047000100460079
:102740000000460001004500000045000100440073
:10275000010043000000430001004200000042006D
:1027600001004100000041000100400001003F0065
:1027700000003F0001003E0000003E0001003D005F
:1027800000003D0001003C0000003C0000003C0057
:1027900001003B0000003B0001003A0000003A004D
:1027A0000100390000003900010038000000380045
:1027B000000038000100370000003700010036003B
:1027C0000000360000003600010035000000350032
:1027D0000000350001003400000034000000340027
:1027E000010033000000330000003300010032001C
:1027F0000000320000003200010031000000310012
:102800000000310001003000000030000000300006
:1028100001002F0000002F0000002F0000002F00FB
:1028200001002E0000002E0000002E0001002D00EF
:1028300000002D0000002D0000002D0001002C00E4
:1028400000002C0000002C0000002C0001002B00D8
:1028500000002B0000002B0000002B0001002A00CC
:1028600000002A0000002A0000002A0001002900C0
:1028700000002900000029000000290000002900B4
:1028800001002800000028000000280000002800A7
:10289000000028000100270000002700000027009A
:1028A000000027000000270001002600000026008D
:1028B0000000260000002600000026000100250080
:1028C0000000250000002500000025000000250074
:1028D0000000250001002400000024000000240066
:1028E0000000240000002400010023000000230059
:1028F000000023000000230000002300000023004C
:10290000000023000100220000002200000022003D
:10291000000022000000220000002200010021002F
:102920000000210000002100000021000000210023
:102930000000210000002100010020000000200014
:102940000000200000002000000020000000200007
:10295000000020000000200001001F0000001F00F8
:1029600000001F0000001F0000001F0000001F00EB
:1029700000001F0001001E0000001E0000001E00DD
:1029800000001E000000043700001E290000511B3B
:1029900000005810000010090000CC04000078026C
:1029A000000041010000433A00423A0020436F75A5
:1029B0006E7420413A004265640045310045006272
:1029C0006564002C2073797374656D2073746F7067
:1029D00070656421204865617465725F49443A20DE
:1029E0000048656174696E67204661696C656400C2
:1029F00048656174696E67206661696C6564001082
:102A000000C90210012C014001220170011801B01F
:102A1000010E01F00104015002FA00B002F0003092
:102A200003E600D003DC009004D2007005C800A0CB
:102A300006BE000008B400B009AA00D00BA00060D8
:102A40000E960060118C000015820020197800C0DD
:102A50001D6E00A0226400B0275A00902C50000088
:102A6000314600E0343C0010383200903A280060D3
:102A70003C1E00A03D1400803E0A00203F0000459F
:102A800072723A204D415854454D50004D415854B2
:102A9000454D5020747269676765726564004572C0
:102AA000723A204D494E54454D50004D494E5445C3
:102AB0004D502074726967676572656400544845BB
:102AC000524D414C2052554E415741590054686572
:102AD000726D616C2052756E6177617900202F00F4
:102AE0002042403A0020403A0020573A0020573A0E
:102AF000007C3C3E5E2B3D3F2F5B5D3B2C2A225CE5
:102B00000043616E6E6F74206F70656E2073756226
:102B10006469722000534420496E697420466169DB
:102B20006C0053442063617264206F6B0A006F7005
:102B3000656E526F6F74206661696C65640A007619
:102B40006F6C756D652E696E6974206661696C6560
:102B5000640A004E6F20534420636172640A000AC5
:102B60004D3234004D3233202573002E0A006F7031
:102B7000656E206661696C65642C2046696C653AF7
:102B8000200046696C652073656C65637465640A32
:102B9000002053697A653A200046696C65206F70A1
:102BA000656E65643A2000454E4420535542524FAD
:102BB0005554494E450A002220706F730022207040
:102BC0006172656E743A2200535542524F55544912
:102BD0004E452043414C4C207461726765743A2223
:102BE0000053756263616C6C204F766572666C6F22
:102BF00077004578636565646564206D617820536E
:102C00005542524F5554494E452064657074683A98
:102C10000057726974696E6720746F2066696C650D
:102C20003A2000667265736800646F696E67002001
:102C300066696C653A20004E6F7720002F617574CD
:102C40006F25632E67006D61726C696E66772E6FFB
:102C50007267006D61726C696E66772E6F726700C5
:102C60006D61726C696E66772E6F726700322E30FE
:102C70002E392E3200322E302E392E3200322E30A6
:102C80002E392E32006D61726C696E66772E6F720E
:102C900067006D61726C696E66772E6F7267006D8A
:102CA00061726C696E66772E6F72670020322E300B
:102CB0002E392E32002020506C616E6E6572427586
:102CC0006666657242797465733A200020467265C3
:102CD00065204D656D6F72793A200020436F6D70ED
:102CE000696C65643A204D6179203131203230328F
:102CF000320A00204C6173742055706461746564FD
:102D00003A20323032312D30392D3033207C204181
:102D10007574686F723A204A61636F62204D696C06
:102D20006275726E2C204D61726C696E20322E308D
:102D30002E392E320A004D61726C696E20322E30AF
:102D40002E392E320A0020536F6674776172652027
:102D500052657365740A00205761746368646F6715
:102D60002052657365740A002042726F776E206F7F
:102D700075742052657365740A0020457874657215
:102D80006E616C2052657365740A00506F776572CE
:102D900055700A0073746172740A00473238004D2E
:102DA00031303031006F6B006572726F7220777254
:102DB0006974696E6720746F2066696C650A0044E7
:102DC0006F6E6520736176696E672066696C652E2B
:102DD0000A004D323900456E6473746F70730025BC
:102DE0005320256320256320256320256300205A76
:102DF0003A0020593A0020583A00656E6473746FA7
:102E00007073206869743A200000000A0B02090CF4
:102E10000D0E080703040100000000000000000080
:102E200000000000000000000000000000000000A2
:102E3000000000000012111000000000000000005F
:102E40000000000000000000000000000000000082
:102E50004D6F76652025736D6D004D6F7665203062
:102E60002E316D6D004D6F766520316D6D004D6FAB
:102E700076652031306D6D004D6F76652041786943
:102E800073004D6F766520457874727564657200C5
:102E90004D6F7665205A004D6F76652059004D6F55
:102EA00076652058005072696E742066726F6D20CE
:102EB0004D65646961002568753A25303268750092
:102EC00025303268753A25303268750001010150AD
:102ED000726F62696E67204661696C65640A0050B2
:102EE000726F62696E67204661696C656400205A82
:102EF0003A200020593A200042656420583A2000C8
:102F0000220A00556E6B6E6F776E20636F6D6D6178
:102F10006E643A20220053756E6465726C616E6453
:102F2000204B3238302052656164792E005072692E
:102F30006E74696E672E2E2E005072696E7420506A
:102F4000617573656400204500205A0020590020F7
:102F5000204D3932205800537465707320706572AB
:102F600020756E6974006F6B0A00526573656E643C
:102F70003A200020453A00205A3A0020593A005899
:102F80003A0000002200250028002B002E0031000E
:102F9000340002010000050108010B0100002100BE
:102FA000240027002A002D0030003300010100001A
:102FB000040107010A0105050505070508080808B9
:102FC000020202020A0A08080404040401010101C1
:102FD00001010101030303030303030304070707BC
:102FE0000C0C0C0C0C0C0C0C020202020606060661
:102FF000060606060B0B0B0B0B0B0B0B010210202E
:10300000200808102040102040800201020108041E
:1030100002010102040810204080804020100804B2
:10302000020180040201804020100804020108040B
:10303000020101020408102040800102040810204F
:1030400040803BFD980011241FBECFEFD1E2DEBFD0
:10305000CDBF00E00CBF13E0A0E0B2E0E6E9F8E28B
:1030600002E00BBF02C007900D92AA39B107D9F751
:1030700025E1AAE9B3E001C01D92A736B207E1F746
:1030800018E1C2E2D8E100E006C021970109802FD3
:10309000FE010F94F410C132D10780E00807A9F7B0
:1030A0000E94A9FE0D943A140C9400008F929F92F6
:1030B000AF92BF92CF92DF92EF92FF926B017C01B1
:1030C00020E030E0A9010F942D0A87FD6BC06DEB65
:1030D00077E386E095E3A70196010F94FD106B015D
:1030E0007C0120E030E040E251E40F94920A20E0BD
:1030F00030E040E251E40F94920A4B015C0120E081
:1031000030E0A901C701B6010F942D0A20E030E09C
:1031100040EA50E487FF04C020E030E040EA50EC91
:10312000C501B4010F94FD1020E030E040E251E40D
:103130000F94D9110F9441129B018BE237FF05C008
:1031400022273327261B370B8DE280938804C90181
:1031500064E670E00F94E110CB01EAE0F0E0BF011B
:103160000F94E110805D80938904C901BF010F9421
:10317000E110282FCB01BF010F94E110805D8093F7
:103180008A048EE280938B04205D20938C0488E86F
:1031900094E0FF90EF90DF90CF90BF90AF909F9022
:1031A0008F9008956DEB77E386E095EB94CF8F9247
:1031B0009F92AF92BF92CF92DF92EF92FF92CF9306
:1031C0006B017C0120E030E0A9010F942D0A87FDFE
:1031D000AAC06DEB77E386E095E3A70196010F9413
:1031E000FD106B017C0120E030E0A9010F942D0A55
:1031F00087FF9EC0C701B601905820E030E040E252
:1032000051E40F94920A20E030E040E251E40F9440
:10321000920A20E030E040EA50E40F94FD1020E0F4
:1032200030E040E251E40F94D9110F9441126B0148
:103230007C0180E28093860460E280E1C81687E228
:10324000D806E104F1048CF0C701B60120E137E2B1
:1032500040E050E00F947910CA01B9012AE030E053
:1032600040E050E00F947910605D6093870460E265
:1032700088EEC81683E0D806E104F1048CF0C7019B
:10328000B60128EE33E040E050E00F947910CA0117
:10329000B9012AE030E040E050E00F947910605D21
:1032A0006093880460E284E6C816D104E104F10466
:1032B0008CF0C701B60124E630E040E050E00F9406
:1032C0007910CA01B9012AE030E040E050E00F94E3
:1032D0007910605D609389048AE0882E912CA12C7E
:1032E000B12CC701B601A50194010F947910C62F26
:1032F000CA01B901A50194010F947910605D609332
:103300008A048EE280938B04C05DC0938C0486E8AF
:1033100094E0CF91FF90EF90DF90CF90BF90AF906F
:103320009F908F9008956DEB77E386E095EB55CFF6
:1033300020E030E040E251E4C701B60162CF8F9255
:103340009F92AF92BF92CF92DF92EF92FF92CF9374
:103350006B017C0120E030E0A9010F942D0A87FD6C
:1033600093C06DEB77E386E095E3A70196010F9498
:10337000FD106B017C0120E030E040E251E40F944D
:10338000920A20E030E04AE754E40F94920A4B019D
:103390005C0120E030E0A901C701B6010F942D0ABD
:1033A00020E030E040EA50E487FF04C020E030E055
:1033B00040EA50ECC501B4010F94FD1020E030E06C
:1033C00040E251E40F94D9110F9441126B017C013A
:1033D000C114D104E104F10409F45BC0F7FE59C043
:1033E000F094E094D094C094C11CD11CE11CF11C59
:1033F0008DE280938704C701B60128EE33E040E0F8
:1034000050E00F9479108AE0882E912CA12CB12CD9
:10341000CA01B901A50194010F947910605D609310
:1034200088048EE280938904C701B60124E630E067
:1034300040E050E00F947910CA01B901A501940150
:103440000F947910605D60938A04C701B601A501ED
:1034500094010F947910C62FCA01B901A5019401F6
:103460000F947910605D60938B04C05DC0938C04F1
:1034700087E894E0CF91FF90EF90DF90CF90BF90DE
:10348000AF909F908F9008956DEB77E386E095EB7A
:103490006CCF80E2AECFCF93DF93EC01CB01BA01CA
:1034A0000F94330A20E030E040E251E40F94D91148
:1034B000688379838A839B83DF91CF910895CF932B
:1034C000DF93EC01CB01BA010F94330A20E030E026
:1034D00040E251E40F94D911688379838A839B83F6
:1034E000DF91CF9108950F94330A20E030E040E25D
:1034F00051E40F94D9115BCE0F94330A20E030E0F1
:1035000040E251E40F94D911D1CDCF93DF93EC0178
:10351000CB01BA010F94330A20E030E048EC52E4CA
:103520000F94D911688379838A839B83DF91CF912C
:103530000895CF93DF93EC01CB01BA010F94330AC6
:1035400020E030E048EC52E40F94D911688379838D
:103550008A839B83DF91CF910895CF93DF93EC0112
:10356000CB01BA010F94330A688379838A839B83E2
:10357000DF91CF910895CF93DF93EC01CB01BA0196
:103580000F94330A688379838A839B83DF91CF9179
:103590000895CF93DF93EC01CB01BA010F94330A66
:1035A0002AE037ED43E25DE30F94D9110F94461200
:1035B000688379838A839B83DF91CF910895CF932A
:1035C000DF93EC01CB01BA010F94330A2AE037ED07
:1035D00043E25DE30F94D911688379838A839B83E7
:1035E000DF91CF910895CF93DF93EC01CB01BA0126
:1035F0000F94330A0F94411279836883DF91CF913E
:103600000895CF93DF93EC01CB01BA010F94330AF5
:1036100020E030E04AE754E40F94D91168837983BD
:103620008A839B83DF91CF9108950F94330A20E022
:1036300030E04AE754E40F94D91181CEFC01849123
:103640000895FC0180810895AF92BF92CF92DF92DE
:10365000EF92FF920F931F93CF93DF93EC015B01E7
:103660008A01FB01199587FD16C0C82ED12CF12CBB
:10367000E12C2196F801C082D182E282F382CE0150
:10368000DF91CF911F910F91FF90EF90DF90CF903E
:10369000BF90AF900895982F907E903CA9F48F71C1
:1036A00090E0B0E0A0E06C017D0156E0CC0CDD1CA8
:1036B000EE1CFF1C5A95D1F7CE010196F501199524
:1036C0008F73C82A2296D6CF982F907F903E11F5FF
:1036D0008F7090E0B0E0A0E06C017D0136E0CC0C92
:1036E000DD1CEE1CFF1C3A95D1F7CE010196F501C9
:1036F00019958F73C82A46E0CC0CDD1CEE1CFF1C0C
:103700004A95D1F7CE010296F50119958F73C82A13
:103710002396B0CF982F987F903F79F5877090E0EF
:10372000B0E0A0E06C017D0186E0CC0CDD1CEE1C5D
:10373000FF1C8A95D1F7CE010196F50119958F737B
:10374000C82A96E0CC0CDD1CEE1CFF1C9A95D1F724
:10375000CE010296F50119958F73C82A26E0CC0C8C
:10376000DD1CEE1CFF1C2A95D1F7CE010396F50156
:1037700019958F73C82A24967DCF982F907C903806
:1037800041F4807C803869F42196CE01F5011995C9
:10379000F8CF8E7F8D3F28F02196CE01F501199547
:1037A000F8CFC12CD12C760165CFCF93DF93DB010D
:1037B000F9019C919130C1F0943080F094509C9329
:1037C0008830D1F480819181009771F001979183C5
:1037D0008083480F591FEA01188206C08C3539F4DE
:1037E0009C5F9C93943041F4DF91CF9108958B338B
:1037F00039F781E08C93F8CF20813181B9016F5F77
:103800007F4F71836083420F531FEA018883808159
:1038100091818F3591056CF7E7CF0F931F9381E06E
:1038200000919712109198122091991230919A124A
:10383000409193125091941260919512709196124A
:10384000041715072607370708F480E01F910F912A
:10385000089590E080E00895282F9091F60383303A
:1038600021F495FD0FC094FD0FC0892F90E0B0E0CA
:10387000A0E004C0B695A795979587952A95D2F7AD
:103880008170089581E0089580E008958091170483
:1038900084FD0BC08091190487FD07C090911A0424
:1038A000937081E019F480E0089581E008954F92CB
:1038B0005F926F927F928F929F92AF92BF92CF92C0
:1038C000DF92EF92FF92CF93DF9300D01F92CDB79C
:1038D000DEB76B017C0129013A0180911A119091A8
:1038E0001B119A838983FC0124813581468157818C
:1038F000C301B2010F94FC104B015C01E981FA8114
:103900002081318142815381C701B6010F94FC109F
:103910009B01AC010F94920A69837A838B839C8309
:10392000A5019401C501B4010F94920A9B01AC0159
:1039300069817A818B819C810F94FD102FE030E2A8
:1039400049E956E40F942D0A1816F4F0A7019601E0
:10395000C701B6010F94920A6B017C01A301920189
:10396000C301B2010F94920A9B01AC01C701B601D9
:103970000F94FD10F1E0F9832EE038E044E856E4BE
:103980000F942D0A18160CF4198289810F900F904C
:103990000F900F90DF91CF91FF90EF90DF90CF903D
:1039A000BF90AF909F908F907F906F905F904F905F
:1039B00008952FEB280F2A3108F047C0E22FF0E0DE
:1039C0008091170490911804A0911904B0911A04E1
:1039D00004C0B695A795979587952A95D2F780FD4F
:1039E00002C081700895E850FC4FE081EE2341F160
:1039F0008091360D9091370DE80FF92FF11D8081E0
:103A000090ED980F9A3030F08E3251F481818053CE
:103A10008A3098F4F093F103E093F00381E0089585
:103A20008D3211F08B3249F4818190ED980F9A30EC
:103A300088F38E3211F48281EACFF0E0E0E0EACF41
:103A40001092F1031092F003E9CF80E00895B1DF06
:103A5000882341F081E02091F0033091F103232B82
:103A600009F480E008950F931F9301E010E020E037
:103A700030E0082E04C0000F111F221F331F0A94CC
:103A8000D2F740917B0450917C0460917D04709149
:103A90007E04402B512B622B732B40937B0450935D
:103AA0007C0460937D0470937E0490911C028913C2
:103AB00003C081E080938C091F910F9108952F928C
:103AC0003F924F925F926F927F928F929F92AF92AE
:103AD000BF92CF92DF92EF92FF920F931F93CF93FB
:103AE000DF93CDB7DEB72E970FB6F894DEBF0FBECB
:103AF000CDBFE82ED62E042F122F282F30E03C8782
:103B00002B87462F50E05A87498769E0F62EF29EB0
:103B1000C001F39E900D11249E878D87FA01E80F56
:103B2000F91FEE0FFF1FEE0FFF1FE852F64F6081E7
:103B30007181828193819B01AC010F94AC13882326
:103B400009F434C1E00E612F6D0DFE9CF0011124CB
:103B5000A985BA85AE0FBF1FAA0FBB1FAA0FBB1F37
:103B6000A852B64FAC901196BC9011971296CC907B
:103B700012971396DC90E00EFE9CA0011124A985FB
:103B8000BA85A40FB51FAA0FBB1FAA0FBB1FA8524F
:103B9000B64FEC901196FC90119712960C911297DB
:103BA00013969C90862F90E0AD85BE85A80FB91F17
:103BB000AA0FBB1FAA0FBB1FA852B64F8C9011961D
:103BC0007C90119712966C90129713965C90610FEF
:103BD00070E0AD85BE85A60FB71FAA0FBB1FAA0F49
:103BE000BB1FA852B64F4C9011963C90119712965D
:103BF0001C91129713962C90E80FF91FEE0FFF1FE0
:103C0000EE0FFF1FE852F64FB081B98321812A835E
:103C100032813B8383818C83FA01E60FF71FEE0F1D
:103C2000FF1FEE0FFF1FE852F64F90819D83A18189
:103C3000AE83B281BF83238128879701402F592DFE
:103C4000B701802F992D0F94AC13882321F0E12C1C
:103C5000F12C00E0912C9501A601B501C6010F944D
:103C6000AC13882319F05701C02ED92C242D332DE5
:103C7000412F522D642D732D812F922D0F94AC1353
:103C8000882321F0412C312C10E0212C282D372DB8
:103C9000462D552D682D772D862D952D0F94AC131F
:103CA000882321F0842C732C612E522C2D813E818F
:103CB0004F8158856D817E818F8198850F94AC13DB
:103CC000882321F01D821E821F82188629813A8155
:103CD0004B815C8169817A818B819C810F94AC13CB
:103CE000882341F03D8139834E814A835F815B8324
:103CF00088858C8389E0EB85FC858E9FD0018F9F22
:103D0000B00D112429853A85A20FB31FAA0FBB1F3E
:103D1000AA0FBB1FA852B64FBA87A9879501A60163
:103D2000B501C6010F94FD109701402F592D0F9436
:103D3000FC106B017C01282D372D462D552D682D4B
:103D4000772D862D952D0F94FD10242D332D412F89
:103D5000522D0F94FC109B01AC01C701B6010F94CA
:103D6000FD106B017C0129813A814B815C81698165
:103D70007A818B819C810F94FD102D813E814F8132
:103D800058850F94FC109B01AC01C701B6010F943C
:103D9000FD1020E030E040E450E40F94D911A985F3
:103DA000BA856D937D938D939C9313972E960FB642
:103DB000F894DEBF0FBECDBFDF91CF911F910F9161
:103DC000FF90EF90DF90CF90BF90AF909F908F903B
:103DD0007F906F905F904F903F902F90089563E990
:103DE00072E084E690E00E94ADC16AEB72E084E686
:103DF00090E00C94ADC18111F2CF68EB71E084E1E9
:103E000090E00C94ADC1CF93DF9300D01F92CDB75B
:103E1000DEB70F9446120F94310A69837A838B833D
:103E20009C83CE0101960E9489BC0F900F900F9049
:103E30000F90DF91CF9108950F94330A2AE037ED68
:103E400043E25DE30F94D911DECFCF92DF92EF9280
:103E5000FF92CF93DF9300D01F92CDB7DEB76B01F7
:103E60007C0120E030E0A9010F942D0A87FD1BC0E2
:103E70006DEB77E386E095E3A70196010F94FD10C3
:103E800069837A838B839C83CE0101960E9489BCCF
:103E90000F900F900F900F90DF91CF91FF90EF90C8
:103EA000DF90CF9008956DEB77E386E095EBE4CF5C
:103EB0000F94330A2AE037ED43E25DE30F94D91102
:103EC000C4CF0F94330AC1CFCF92DF92EF92FF920B
:103ED000CF93DF9300D01F92CDB7DEB70F94330A94
:103EE00020E030E048EC52E40F94D9116B017C01E2
:103EF00020E030E0A9010F942D0A2DEB37E346E0D6
:103F000055E387FF04C02DEB37E346E055EBC701CF
:103F1000B6010F94FD1069837A838B839C83CE0155
:103F200001960E94E4BB0F900F900F900F90DF91CD
:103F3000CF91FF90EF90DF90CF9008950F94330AC8
:103F40000C9409CD0F94330A20E030E048EC52E4A1
:103F50000F94D9110C94A5C90F94330A0F944112F0
:103F6000CB010C94B6BD0E94468F45CF0E9438B954
:103F700036CF0C940B930C940B930C940B930C94E2
:103F80000B930C94BD920C94BD920C94BD920C9426
:103F9000BD9280915002882341F06091700470912D
:103FA000710441E081E00C94E9DB08950E946ED435
:103FB00022CFCF93DF93C091F70CD091F80C2097CC
:103FC00029F16091F30C7091F40C8091F50C9091B3
:103FD000F60C0F9441126E5F7F4F24976C177D078C
:103FE000ACF470933E0B60933D0B0E9422E260564E
:103FF00079478E4F9F4F60933F0B7093400B809398
:10400000410B9093420BDF91CF91089510923F0B9B
:104010001092400B1092410B1092420BF4CFCF92B2
:10402000DF92EF92FF920F931F93CF93DF9300D015
:1040300000D01F921F92CDB7DEB78E010F5F1F4FCA
:10404000D80130E020E0FB01E20FF31FE491ED9393
:104050002F5F3F4F28303105B1F7877098E0899F77
:10406000B001112460648BE691E10E948FE683E742
:1040700090E00197F1F77801E8E0EE0EF11C8BE992
:10408000C82ED12CF80161918F018BE691E10E943D
:10409000CDD4C6010197F1F7E016F10699F72896FD
:1040A0000FB6F894DEBF0FBECDBFDF91CF911F9149
:1040B0000F91FF90EF90DF90CF900895CF92DF9215
:1040C000EF92FF920F931F93CF93DF9300D000D016
:1040D000CDB7DEB78A0146E0469F9001479F300D7D
:1040E0001124BC01620F731F46E050E0CE0101961F
:1040F0000F945609C980DA80EB80FC80F80140817A
:104100005181628173818FEF9FEFC416D506E60659
:10411000F70640F081E090E04C155D056E057F05E7
:1041200008F080E026960FB6F894DEBF0FBECDBF34
:10413000DF91CF911F910F91FF90EF90DF90CF9083
:1041400008950F931F93CF93DF93CDB7DEB72E97CC
:104150000FB6F894DEBF0FBECDBF8A011E861D8646
:104160006F83788789879A872FEF2B87603871054F
:104170008105910538F48BE691E10E94CDD481E070
:1041800090E02FC09E01235F3F4FAE01495F5F4F1C
:1041900069EB70E084E394E10E9409D697FD2CC09E
:1041A0008D859E8526E0289FB001299F700D1124E2
:1041B0006C5C7B4E46E050E0CE0101960F945609B0
:1041C0006D818BE691E10E94CDD401301105B9F2E9
:1041D0006E816623A1F28BE691E10E94CDD482E04C
:1041E00090E02E960FB6F894DEBF0FBECDBFDF91E4
:1041F000CF911F910F9108959E01235F3F4FAE0114
:10420000495F5F4F63E670E082EE91E10E9409D65C
:1042100097FD0BC08D859E8526E0289FB001299FC4
:10422000700D11246E517E4EC5CF6FE3A4CF2F9237
:104230003F924F925F926F927F928F929F92AF9236
:10424000BF92CF92DF92EF92FF920F931F93CF9383
:10425000DF93D62FC72FFC0180809180A280B3808E
:10426000C501B40120E831E541E050E00F9457105A
:10427000C9016DE671E00F94CD106B017C01C501A1
:10428000B40120E13EE040E050E00F945710CA0135
:10429000B90128E130E040E050E00F945710362E8D
:1042A000272E062F172F8CE3482E512C612C712CB2
:1042B000C501B401A30192010F945710B62EA72E89
:1042C000CA01B901A30192010F945710CB01C11487
:1042D000D10479F1AF92BF927F936F932F923F9267
:1042E000FF92EF92DF92CF9282E090E19F938F93C3
:1042F000CF93DF930F94C6098DB79EB70E960FB676
:10430000F8949EBF0FBE8DBF8D2F9C2FDF91CF9154
:104310001F910F91FF90EF90DF90CF90BF90AF90E3
:104320009F908F907F906F905F904F903F902F90D5
:104330000895E114F104C9F0AF92BF927F936F9397
:104340002F923F92FF92EF9282EF9FE09F938F9385
:10435000CF93DF930F94C609EDB7FEB73C960FB627
:10436000F894FEBF0FBEEDBFCFCF012BB9F0AF92D7
:10437000BF927F936F932F923F9286EE9FE09F9321
:104380008F93CF93DF930F94C6098DB79EB70A968C
:104390000FB6F8949EBF0FBE8DBFB6CF892BA9F084
:1043A000AF92BF927F936F938EED9FE09F938F9319
:1043B000CF93DF930F94C609EDB7FEB738960FB6CB
:1043C000F894FEBF0FBEEDBF9FCFAF92BF928AEDB4
:1043D0009FE09F938F93CF93DF930F94C6090F9025
:1043E0000F900F900F900F900F908ECF8F929F9203
:1043F000AF92BF92CF92DF92EF92FF92E0911A11AB
:10440000F0911B116081718182819381C480D5807C
:10441000E680F7809B01AC010F94920A4B015C018E
:10442000A7019601C701B6010F94920A9B01AC0146
:10443000C501B4010F94FD100F946A136B017C0148
:1044400020E030E040E251E40F942D0A87FF06C0DF
:10445000C12CD12C80E2E82E81E4F82EA701960130
:1044600060E070E08CE093E40F94FC1020E030E01A
:10447000A9010F94FD10FF90EF90DF90CF90BF90B7
:10448000AF909F908F9008958F929F92AF92BF921E
:10449000CF92DF92EF92FF92E0911A11F0911B11EF
:1044A0006081718182819381C480D580E680F780AC
:1044B0009B01AC010F94920A4B015C01A70196018C
:1044C000C701B6010F94920A9B01AC01C501B4016A
:1044D0000F94FD100F946A136B017C0120E030E013
:1044E00040E251E40F942D0A87FF06C0C12CD12C65
:1044F00080E2E82E81E4F82EA701960160E070E0EA
:104500008CE093E40F94FC109B01AC0160E070E040
:10451000CB010F94FC10FF90EF90DF90CF90BF90F5
:10452000AF909F908F9008958091F0039091F10348
:10453000009731F04AE050E070E060E00D944E08E2
:1045400060E070E0CB0108958091F0039091F10359
:10455000009731F04AE050E070E060E00D942107F0
:1045600060E070E0CB010895EFDF97FD0AC0ECDF5B
:104570006F3F71058105910509F02CF4E5DF862F69
:10458000089580E008958FEF0895CF93C62F5FDAE6
:10459000882311F0CF91E8CF8C2FCF91089580918F
:1045A000F0039091F103892B39F0DEDF91E0811166
:1045B00001C090E0892F089591E0FCCFCF93DF9365
:1045C000C82FD62F44DA882319F0DF91CF91E7CF97
:1045D0008C2FEFD9811101C08D2FDF91CF910895DC
:1045E000B3DFCB010895CF93DF93EB0130DA88235B
:1045F00019F0DF91CF91F4CFCE01DF91CF910895E3
:104600000F931F93CF938091F0039091F103009744
:10461000E9F0FC018F01C1912C2F2F7D81F0C53471
:1046200011F0C536B9F7F801108270E060E00F9420
:10463000CB05F801C083CF911F910F91089570E0D1
:1046400060E0CF911F910F910D94CB0560E070E079
:10465000CB01F1CFCF92DF92EF92FF926A017B0103
:10466000F6D9882329F0FF90EF90DF90CF90C8CF44
:10467000C701B601FF90EF90DF90CF9008958F9221
:104680009F92AF92BF92CF92DF92EF92FF920F93E1
:104690001F93CF9389E5E82E82E0F82E0EE814E010
:1046A00093E5C92E90E1D92EC0E088E58C0FCFD9D3
:1046B000882339F0A5DF4B015C0180918C098823A8
:1046C00059F0F70180819181A281B381F801808343
:1046D0009183A283B38313C08C2FBED8882309F49F
:1046E00092C0F7012081318142815381C501B4011B
:1046F0000F94FD10F8016083718382839383CF5FF1
:10470000F4E0EF0EF11C0C5F1F4F84E0C80ED11CCB
:10471000C33059F685E49BD9882309F47EC070DF45
:104720006B017C0183E098D8882371F020916502A9
:10473000309166024091670250916802C701B6014C
:104740000F94FD106B017C01C0929A04D0929B04DF
:10475000E0929C04F0929D0440E050E0BA0186E4AF
:1047600079DF20E030E0A9010F94241318167CF4BF
:1047700047DF20E030E040E752E40F94D911609326
:104780002302709324028093250290932602809145
:104790008D0983FD2CC080918C09811128C08091E6
:1047A000D30C882321F1209165023091660240915B
:1047B00067025091680260919A0470919B04809105
:1047C0009C0490919D040F94FC102091E00C30917A
:1047D000E10C4091E20C5091E30C0F94FD106093BA
:1047E000E00C7093E10C8093E20C9093E30CCF917A
:1047F0001F910F91FF90EF90DF90CF90BF90AF90FF
:104800009F908F900895F6012081318142815381DC
:10481000C501B4010F94FC106DCF80916502909199
:104820006602A0916702B091680280939A04909307
:104830009B04A0939C04B0939D048ECFCF92DF92F3
:10484000EF92FF920F931F93CF93DF936B017A0147
:10485000EC01C356DC4F28813CE0389F8001399F32
:10486000100D112427FF24C0FB01118210828881C2
:104870008F5F888388819801280F311D87FD3A95C5
:10488000C90120910A11F6012817190629F024F010
:1048900088818C300CF43CC08081918104968034F6
:1048A0009C4908F475C0F60180819181049672C01C
:1048B00088819801280F311D87FD3A95C901209103
:1048C0000A112817190699F294F28881A801480F55
:1048D000511D87FD5A95FA01EE0FFF1FE40FF51FDA
:1048E000EE53FF4E808187FFC2CF8881F801E80F29
:1048F000F11D87FDFA95CF01EE0FFF1FE80FF91F9D
:10490000EE53FF4E808160E08F770E94DFDFAFCFF4
:10491000808191812881A801420F511D27FD5A9560
:104920009A01FA01EE0FFF1FE20FF31FEE53FF4E45
:1049300021813281820F931FF701918380838881C7
:104940009801280F311D87FD3A95F901EE0FFF1FE1
:10495000E20FF31FEE53FF4E808187FF20C0888156
:10496000080F111D87FD1A95F801EE0FFF1FE00FCC
:10497000F11FEE53FF4E808161E08F77DF91CF9181
:104980001F910F91FF90EF90DF90CF900C94DFDF9D
:1049900080E49CE9F701918380838FEF8883DF9126
:1049A000CF911F910F91FF90EF90DF90CF900895DE
:1049B000E0916F04E63028F581E08E0F80936F045C
:1049C0004091170D5091180D6091190D70911A0DAD
:1049D0002091110D9091120D8091850439E0E39F93
:1049E000F0011124E75CFB4FA0916911B0916A11AD
:1049F000B183A08342835383648375832683978323
:104A000080870895CF93DF93CDB7DEB78E819091E5
:104A10005210891768F0809352109E01275F3F4F14
:104A20004F81588568E270E089E290E10F94F509C2
:104A3000DF91CF91089580931C028032B0F5909160
:104A40007F04891724F091E0980F90937F044091A0
:104A50007B0450917C0460917D0470917E04082E4B
:104A600004C076956795579547950A94D2F741709B
:104A700040938C0987FD1CC0282F082E000C330B97
:104A80003F938F9380E596E09F938F9380E696E027
:104A90009F938F931F92B6DF8DB79EB707960FB681
:104AA000F8949EBF0FBE8DBF089510928C09E2CF7F
:104AB0000C946CD80F931F93CF93DF936F3F11F437
:104AC000109252102091521021111CC08C010F9491
:104AD0007C09800F911FEC01C01BD10BC932D1059D
:104AE0003CF00197FC012491207C2038D1F3F3CFD6
:104AF000DD27AE01B80189E290E10F949D09C75D01
:104B0000DF4E1882DF91CF911F910F910895CF93BF
:104B1000DF9390918D0993FD5BC0C82F89E40E94BB
:104B2000271D882309F445C01FDD90E018161906DB
:104B300014F481E090E026E0289FF001299FF00D19
:104B40001124E650F34F82819381D0E08C38910597
:104B500014F08CE890E09093F80C8093F70C29DA2D
:104B60006091F70C7091F80C072E000C880B990BD4
:104B70000F94330A2091F30C3091F40C4091F50C12
:104B80005091F60C0F942413181684F082E390E1F0
:104B900060E090DF61E06C278C2F0E946F88CC234F
:104BA000B9F08D2FDF91CF910C940BF481E490E15B
:104BB000EFCF83E50E94271DD82F811107C0CC239A
:104BC00039F082E50E94271D882311F009DDBECF50
:104BD000DF91CF9108950F931F930E9422E20091DD
:104BE0003404109135042091360430913704601B51
:104BF000710B820B930B97FD0CC086B186FB882747
:104C000080F991E08927349B8260329B8460809395
:104C100033048091330481709091330491FD82605C
:104C200090913204981749F0813009F148F08230B0
:104C300079F0833091F0809332041F910F910895A1
:104C4000913079F09230B9F79091310491500CC0C5
:104C5000992339F09330C1F3EECF9130A9F392301C
:104C600051F7909131049F5F90933104E4CF9923E1
:104C700059F3933001F7F5CFCF92DF92EF92FF9285
:104C8000CF93C82F833011F4609320040E9422E256
:104C90006B017C0124EA30E74DE75FE360911D0280
:104CA00070911E0280911F02909120020F942D0A94
:104CB00087FD18C08AEF90E0A0E0B0E08C0D9D1D4C
:104CC000AE1DBF1D8093210490932204A093230462
:104CD000B0932404C0931202CF91FF90EF90DF9025
:104CE000CF90089580E090E0DC01E8CFFC0180E007
:104CF000309749F09491992331F0907C903809F0E5
:104D00008F5F3196F7CF0895009751F0FC0180E056
:104D10009191992331F0907C9038D1F38F5FF8CF47
:104D200080E0089569EF78E180E079D961EF78E17A
:104D300081E075D969EE78E182E071D961EE78E1C0
:104D400086E06DD969ED78E187E069D961ED78E1B8
:104D500083E065D969EC78E184E061D961EC78E1C0
:104D600085E05DC9CF93823061F4C4E0C15058F052
:104D700088E0C89FB00111246657774E8C2F4FD919
:104D8000F5CFCF91CFCFCF9108950F931F93522F8F
:104D90002091691130916A112817390781F1909398
:104DA0006A11809369118B0130E020E00093170DA8
:104DB0001093180D2093190D30931A0D4093110D77
:104DC0005093120D8053924421F410928504109256
:104DD0006F048BE691E10E9497E681E020916911D2
:104DE00030916A112053324409F080E0BBDF82E049
:104DF0008093500281E08093270D10927A041F91D6
:104E00000F91089520E040E070E060E080E392E4DC
:104E1000BCCFCF930E9438B90E94468FC82F8823F9
:104E200019F080E00E9455CF8C2F0E94FB1ECF917D
:104E3000E9CFCF93DF93C0916F04CC23B1F0C15081
:104E4000C0936F0489E0C89FE0011124C75CDB4F69
:104E50006A817B812F814E818881998196DF888547
:104E600080938504DF91CF910895DF91CF91CACFD0
:104E700080912D0D803210F40E94331D0E94EF1E90
:104E8000D8CF2091720421110BC0009711F48EE944
:104E900099E1909371048093700481E0809372048F
:104EA00087DD20E040E070E060E089EC9FE16DDFAD
:104EB00081E0809385040E942E9310928504B9CFDF
:104EC00085E399E1DEDF81E08093850460E089E39A
:104ED0009FE2F0DD81E399E19093EA0C8093E90C85
:104EE00008951092380410924F0280919B128068AE
:104EF00080939B1260E083E299E1DCDD83CF4F92E7
:104F00005F926F927F928F929F92AF92BF92CF9259
:104F1000DF92EF92FF920F931F93CF93DF9300D016
:104F20001F92CDB7DEB70E9422E26B017C01809117
:104F30008404811188C0809112028F3F09F483C0DC
:104F40000E9422E200912104109122042091230466
:104F500030912404601B710B820B930B97FD73C07F
:104F600080911F11909120118F5F8F70891709F424
:104F70006AC0009112020530D0F524E0029FF001D2
:104F80001124EF56FD4F80819181A281B3818983E5
:104F90009A83AB83BC83B090320D033089F5809146
:104FA00020048093320D80E1E9E5F2E0AEE8B4E060
:104FB00001900D928A95E1F734E0039F800111245E
:104FC00002571B4F2091800430918104409182044C
:104FD00050918304F80160817181828193810F94E3
:104FE000FD10F801608371838283938315C08091E3
:104FF000510290915202A0915302B0915402C7CF36
:105000000E3F09F058C080E1E1E8F2E0AEE8B4E01C
:1050100001900D928A95E1F710928004109281041C
:1050200010928204109283048FEF8093120281E029
:105030008093840460E0CE0101960E94A7B4109290
:105040008404B092320DC7DD8091330482FF37C0F3
:1050500080913004811135C091E0909330048091AB
:10506000380489278093060D1092380483E08093DA
:105070005002109233040E9422E26C507E4F8F4FF8
:105080009F4F60933404709335048093360490935B
:10509000370468E873E182E090E00E94ADC116E059
:1050A000115079F00E9451C162E070E080E090E020
:1050B0000E94EFE1F5CF053008F0AECF74CF10922B
:1050C000300480912C0490912D04A0912E04B09175
:1050D0002F04A7019601281B390B4A0B5B0BDA0141
:1050E000C901B7FD88C1D701C6018C599F4FAF4F89
:1050F000BF4F80932C0490932D04A0932E04B09363
:105100002F0460913104062E000C770B77FF03C04B
:105110007195619571099091310480912B049813D8
:1051200098C0633008F095C010923104809131042A
:1051300080932B04643008F09CC08091060D81118F
:105140001AC18091691190916A118053924441F47F
:1051500080911302882309F420C1815080931302A7
:105160000E9480938090B8049090B904A090BA04F3
:10517000B090BB0481110E948D9320915002222394
:1051800009F44BC0D501C4014AE0B695A79597959F
:1051900087954A95D1F7009741E0A407B10520F023
:1051A0008FEF9FEFA0E0B0E096958795009739F0DC
:1051B00040912504509126044817590770F5223074
:1051C00038F0243008F4FBC0243011F4109250025F
:1051D000E0916911F0916A1119951092060D809174
:1051E000691190916A1180539244F9F40E9422E26D
:1051F000DC01CB018C199D09AE09BF090091250482
:105200001091260430E020E0081719072A073B0711
:1052100020F4909326048093250480916911909145
:105220006A118053924409F4CEC0809185048111A3
:10523000CAC08091270490912804A0912904B091BC
:105240002A04C81AD90AEA0AFB0AF7FCCAC0DADD3E
:10525000C8C0633009F06ACF8091310487FD07C070
:1052600081E0880F880F8093310464E05FCF8FEF77
:10527000F8CF80912C0D21E030E040E050E0882311
:1052800009F456C08090280D9090290DA0902A0D09
:10529000B0902B0D81149104A104B104E9F170E0E8
:1052A00090E080E00F94310A20E030E040E85EE3D7
:1052B0000F94920A2B013C01C701B60168197909C4
:1052C0008A099B090F94310A9B01AC01C301B20109
:1052D0000F94D91120E030E04AE754E40F94920A89
:1052E0004B015C0120E030E040EA52E40F942413CB
:1052F00024E630E040E050E087FF12C020E030E0DC
:1053000040EF51E4C501B4010F9424132AE030E0CA
:1053100040E050E087FF04C021E030E040E050E092
:10532000C092280DD092290DE0922A0DF0922B0DFB
:10533000A09131040A2E000CBB0B0F949F1024E0A7
:1053400030E040E050E00F9479108091170D90917B
:10535000180DA091190DB0911A0D820F931FA41F63
:10536000B51F8093170D9093180DA093190DB0934E
:105370001A0D10923104D701C6018856954CAF4FD3
:10538000BF4F8093270490932804A0932904B093DF
:105390002A0481E080935002D4CE89E080931302E6
:1053A0008091250490912604009729F0019790930D
:1053B00026048093250481E080935002D1CE81E0C1
:1053C0008093500205CFF8E9CF0EFAE3DF1EE11C0F
:1053D000F11CC0922704D0922804E0922904F09294
:1053E0002A04809150028130D9F0833021F48BE679
:1053F00091E10E9497E60F900F900F900F90DF9130
:10540000CF911F910F91FF90EF90DF90CF90BF90C1
:10541000AF909F908F907F906F905F904F90089586
:1054200010925002E8CF80930D0D20E040E070E034
:1054300060E080EA9DE2A9CC20E044E064E18BE6F4
:1054400091E10E949EE681E02091691130916A11FC
:105450002053324409F080E085DC8BE691E10C9426
:1054600097E6EADF3E98469A3C98449A3A98429AE0
:10547000B2DB1092310408954FEF5FEF0C94A1203E
:10548000AF92BF92CF92DF92EF92FF920F931F9352
:10549000CF93DF9300D01F92CDB7DEB76C015B01D5
:1054A0007A0110E000E00E151F05E8F419821A8257
:1054B0001B821C82AE014F5F5F4FB501C6010E9487
:1054C000241B6C0169817A818B819C816115710536
:1054D0008105910541F0A701401B510B0E94A120BD
:1054E000080F191FE0CFC8010F900F900F900F9079
:1054F000DF91CF911F910F91FF90EF90DF90CF90B0
:10550000BF90AF900895CF92DF92EF92FF920F93EA
:105510001F93CF93DF9300D01F92CDB7DEB77C01EE
:10552000062F6A01122F11160CF03CC0AE014F5F1E
:105530005F4F6EE17BE1C7010E94241B7C01698102
:105540007A818B819C81611571058105910551F1ED
:105550006D3371058105910509F447C06E377105FA
:105560008105910509F441C06A32710581059105F3
:1055700039F507FF0FC085E099E10E3F11F081E09A
:1055800099E1412F012E000C550B6EE17BE178DF94
:10559000181B59C065E470E080E090E06DDF1150A9
:1055A00031F510E0812F0F900F900F900F90DF9149
:1055B000CF911F910F91FF90EF90DF90CF900895C2
:1055C000643271058105910569F4C114D10451F06B
:1055D000412F012E000C550B6EE17BE1C60150DF1F
:1055E000181BA1CF49DF11509ECF07FDC4CF61E04A
:1055F00089819A81AB81BC81CD97A105B10509F460
:1056000060E0600F6A30A4F01150862F6AE00F94BA
:10561000C010092F682F880F770B605D7F4F072E12
:10562000000C880B990B28DF112309F4BACF602FE7
:10563000062E000C770B605D7F4F072E000C880B49
:10564000990B1ADF1150112309F4ABCF412F012E12
:10565000000C550B6EE17BE1C70112DF181BA2CFD6
:105660004FEF5FEF61E27BE10BCF4FEF5FEF6EE15A
:105670007BE106CF0F931F93CF93DF9300D000D031
:105680001F921F92CDB7DEB70091690210916A0296
:1056900020916B0230916C020D831E832F8338871B
:1056A00000916D0210916E0220916F023091700294
:1056B00009831A832B833C8390917211691710F030
:1056C0006FEF690F262F30E0409173112C0F3D1FB3
:1056D000F901403199F4943089F46181680F606870
:1056E0008BE691E128960FB6F894DEBF0FBECDBFD2
:1056F000DF91CF911F910F910C948FE66581EECFD2
:10570000FC01A081B1811C92A281B3818C918F5F39
:105710008C930280F381E02D608180E0ABCF4F92CB
:105720005F926F927F928F929F92BF92CF92DF9201
:10573000EF92FF920F931F93CF93DF9300D000D08F
:105740001F921F92CDB7DEB77C013B016A01490170
:10575000FB016081FC0180818DDFC114D10461F106
:10576000FA82E9827C826B8201111FC0AE014B5F1D
:105770005F4FB401C6010E94241B6C016D817E81C4
:105780008F8198856115710581059105A9F074DEF9
:10579000F70180818F5F8083843140F3CE010196D1
:1057A000AFDFE4CFB12C860129C08601B12C26C021
:1057B000452846284728B1F728960FB6F894DEBF4B
:1057C0000FBECDBFDF91CF911F910F91FF90EF9052
:1057D000DF90CF90BF909F908F907F906F905F9061
:1057E0004F900895B39407C0B1102EC00115110554
:1057F000C9F20F5F1F4F01151105A9F2AE014B5FF2
:105800005F4FB401C6010E94241B6C014D805E8075
:105810006F8078844114510461047104A9F0F0E2AE
:105820004F16510461047104F9F2D301C2018D973E
:10583000A109B1090297A105B10530F04BE2441668
:1058400051046104710471F6F7018081482F4B0DFA
:105850005527551F453151052CF0853018F0CE01E4
:1058600001964EDF81E0411451046104710409F492
:1058700080E0B80EF70180818B0D8083BB2009F496
:1058800097CFBA94AE014B5F5F4FB401C8010E943D
:10589000241B8C016D817E818F819885EDDDEECF9B
:1058A0002F923F924F925F926F927F928F929F9230
:1058B000AF92BF92CF92DF92EF92FF920F931F931E
:1058C000CF93DF9300D0CDB7DEB74C013B015A0137
:1058D000222E3B83280181E0809385044091170D9F
:1058E0005091180D6091190D70911A0D41155105C7
:1058F0006105710571F0141615060CF080E08093B7
:105900007A041092170D1092180D1092190D109222
:105910001A0D10917A043090060D1092060D311078
:1059200005C080915002882309F494C0C201DED9D9
:10593000082F80E0C114D10411F0C601D7D91A8212
:105940001982E114F104B1F4402F50E0282F30E027
:10595000CA01820F931F45976CF484E190E0841B89
:10596000950B821B930B97FD0196959587958A83DE
:1059700081E0898301E02EE13BE1A201BE016F5F7E
:105980007F4FCE010296CBDEE114F10489F08A81CB
:10599000882321F01A8289818F5F898300E021E2C8
:1059A0003BE1A701BE016F5F7F4FCE010296B7DEDC
:1059B000C114D10451F000E02EE13BE1A601BE018B
:1059C0006F5F7F4FCE010296AADE63E080E052DE79
:1059D0006BE570E080E090E0112321F060E270E080
:1059E00080E090E049DDC30140DE6DE570E080E0DD
:1059F00090E0112321F060E270E080E090E03CDD77
:105A0000C40174D963E092E1981B892F33DE60E210
:105A100070E080E090E0112321F06BE570E080E021
:105A200090E02ADDC40121DE60E270E080E090E0D9
:105A3000112321F06DE570E080E090E01DDD332062
:105A400049F0111102C0A22CBB80A114B104C1F015
:105A5000F50119950F900F900F90DF91CF911F9145
:105A60000F91FF90EF90DF90CF90BF90AF909F90FD
:105A70008F907F906F905F904F903F902F90089500
:105A8000D8D9E8CFCF92DF92EF92FF920F931F9376
:105A9000CF93DF9300D01F92CDB7DEB720912D0DAD
:105AA0001C821B8280E2898380E22A302CF0822FC4
:105AB0006AE00F94C010805D8A83822F6AE00F94A1
:105AC000C010905D9B838FE8C82E8BE1D82ECE014D
:105AD00001967C0101E91BE129E33DEF48E357E230
